:0400000080313828EB
:100008007E1480310B1F36284E01191B0F1F132831
:1000180041015E088A005D080A0080313628991B74
:100028008F1F1D2841015C088A005B080A00803187
:100038003628191A0F1E2728410162088A0061080C
:100048000A0080313628991A8F1E3128410160082C
:100058008A005F080A00803136289A18901C3628D2
:100068008E311E267E10090080313A28FF30CD00DF
:10007800CE00CF00D000D100D2008C3084002330D5
:1000880085006430FE00FF018E312A268031A030C1
:10009800FD018400003085003930FE000030FF008B
:1000A8008E312A268031203084000130850032309C
:1000B800FE000030FF008E312A2680317E1040017C
:1000C8006528372280318B170B1729304001A20091
:1000D8000F30A3002F228031A62280314201E30194
:1000E800E401E201EA01E5014001981340010D1A1B
:1000F8008F2801304201E2068030400198060F3017
:100108004001CA003530C9005130890B8928C90B14
:100118008928CA0B892840018E1A7A2841014F087C
:10012800031D7A2870304001BD009030BE00523067
:1001380014228031EF238031E02380310318AD2869
:1001480002248031F32180314201ED0A0319EE0ABD
:10015800A02841010F30CF01CF0A4001CA00353035
:10016800C9005130890BB628C90BB628CA0BB62866
:1001780041014F0BBC28400152084101CE0040010B
:100188005108C900CA01C91BCA0341014E084001F0
:10019800CB00CC014A084C06031DD42849084B065D
:1001A8000319E7284201E30A0319E40A41014E084A
:1001B8004001A400A501A40A86319A268031FE22B6
:1001C80080312208C12842016408803A4001C900F0
:1001D80080304902031DF328013042016302031CE9
:1001E800DF298E317326803123084201E700400160
:1001F80022084201E60067084001AB004201660898
:100208004001AA008631A02680312B084201E10076
:1002180040012A084201E00067084001A3004201AA
:1002280066084001A200420160084001A2024201A2
:1002380061084001A33BF02280312308B80022085E
:10024800B700372380313A08C2003908C10038089E
:10025800C0003708BF00A92240084201EC00400155
:100268003F084201EB0040010A30A201A301A400AB
:100278005230A5018E31362680317830BD0090305D
:10028800BE0042016C084001C00042016B084001F9
:10029800BF00523014228031EF238031E0238031B7
:1002A80003185F2902248031F32180314201ED0ACD
:1002B8000319EE0A5229420162080030031D8E29F3
:1002C8006C02193003196B02031C782941014D088F
:1002D800031D7829003010248031E3218031410149
:1002E800CD01CD0ACC01B429003042016C0219308D
:1002F80003196B020318B42941014C08031DB429E2
:10030800333015248031E32180314101CC01CC0AFE
:10031800CD01B4296C02193003196B02031CAA29F8
:100328006A08031DAA29EA01EA0A650BA229003016
:10033800E50110248031E3218031B4293330E5010F
:10034800E50A15248031E3218031B42900306C029C
:10035800193003196B020318B4296A0BB429EA018E
:1003680086317B2680314030A500A030A400A3014F
:10037800A20142015F084001A90042015E08400154
:10038800A80042015D084001A70042015C08400145
:10039800A60084313624803125084201DF0040015F
:1003A80024084201DE00400123084201DD0040012B
:1003B80022084201DC004201E301E401BC289E302E
:1003C800C001C1000E30C2003F30BF003E08AF0080
:1003D8003D08AE003F30B00040308531812D4001EE
:1003E800A200410163080319F5294E01191B012ACE
:1003F8004001220854019A00112A19134101540896
:10040800B23E860087014001220881004101D40ADA
:10041800083054020318D401E3034E0119170800E9
:10042800C200C3003F30C401C501C1003E08AF008F
:100438003D08AE004130B000433085318125430886
:10044800860001308700810142084302BD00BE01D9
:10045800BD1BBE03080023084101DA004001220841
:100468004101D900080089228031562280314C226E
:1004780080314422803191228E31F0268E31BF2E78
:10048800013041019D0050309E009B019C010800F5
:10049800603051018D008F0191010530930090016A
:1004A8009201080040019C019B01980199019A0161
:1004B8000F3096007F309200BF3093009400FF30D9
:1004C80095007E01D9005730CE00EF30C3000730C9
:1004D800E400FF30B800DA01E501C401B901CF0139
:1004E800E601BA01C501D001DB0111309E007D0192
:1004F8004B08C0391738CB000F307E01A6007D01AC
:100508001C08C03913389C0008004F019601970158
:10051800980199019A019B0108000130450190005A
:100528008F0191019B308D008C014E0190109A141F
:10053800F6304001A2000730A3002F22E730450122
:100548008E00080045018E170800F923803103103A
:10055800450D460DC8004808031DB72ABF01C00154
:10056800C101C2010800F92380311F30C636C50C0D
:10057800C40CC30C890BBA2A4308C7009630C117AC
:10058800C201C802C81FD42A4808803A973E031CF3
:10059800B22AC236C10CC00CBF0CC80FCD2AE12A42
:1005A800203048020318B22A48080319E12ABF3547
:1005B800C00DC10DC20DC803D82A47080319080089
:1005C800BF09C009C109C209BF0A0319C00A031932
:1005D800C10A0319C20A0800A31F08002209A400BF
:1005E8002309A500A40A0319A50A2408A2002508BE
:1005F800A3000800A701A51F082BA409A509A40AA0
:100608000319A50AA701A70AA31F0F2BA209A3096B
:10061800A20A0319A30A2208230403192A2BA601F4
:10062800A60AA31B1A2BA235A30D142B23082502F7
:10063800031D202B22082402031C262B2208A402B7
:100648002308A53BA336A20CA60B1A2B27080319CF
:10065800322BA409A509A40A0319A50A2508A30091
:100668002408A20008003808A9003708A800C523F4
:10067800803137084101CA07400138084101CB3DA4
:10068800A6238031003A03195B2B4E35203E8600A5
:1006980001308700403FBB00413FBC003B0841019F
:1006A800CA0240013C084101CB3B1A248031410178
:1006B8004B084001A50041014A084001A400183038
:1006C800A200A30181232208BB002308BC00BD01AE
:1006D800BE013E08AC003D08AB003C08AA003B0840
:1006E800A900003087316B272C08BA002B08B90005
:1006F8002A08B8002908B7000800A701A80122089D
:1007080023040319A12BA601A60AA31B8E2BA2352D
:10071800A30D882BA735A80D23082502031D962BAA
:1007280022082402031C9D2B2208A4022308A53BAF
:100738002714A336A20CA60B8E2B2808A300270883
:10074800A200080040014E08A200A301A21BA303B7
:1007580001304D07A400A5010318A50ACD1BA50368
:10076800400123082506031DBB2B22082406031974
:1007780001344E08031D003418304D0603190134A6
:100788000034A6238031003A031D08004E0FCD2BFC
:10079800CE014D088731592780310A248031FE2245
:1007A8002208CD004D35203E8600013087002808FC
:1007B800C03F2908C13F08006E08803A4001C900BF
:1007C80042016908803A40014902031D08004201BC
:1007D80068086D0208003E084201E90040013D0832
:1007E8004201E800ED01EE0108003F08C30040089F
:1007F800C4004108C5004208C600080042016D084F
:10080800523E860001308700010808000319A50A36
:100818001930A200A30108004001BD009030BE00BD
:1008280008004001BD009030BE000800322480312D
:10083800003A031D08004E084D06031D282CCE0162
:10084800CE03CD01CD0308004E08873159278031EA
:100858000A248031FE222208CE00080040014E0FF3
:10086800003401342508B2008030B2052535B400C3
:10087800A41B341434080319492C340F472CA20143
:10088800A301A401A501A4174C2CA201A301A40152
:10089800A5012908B3008030B30533083206031DCB
:1008A80032172935B300A81B331433080319642CF5
:1008B800330F622CA601A701A801A901A817672C6C
:1008C800A601A701A801A9013408330203188E2C38
:1008D800321F702C8030B2063408B5003308B400DB
:1008E8003508B3002208B5002608A2003508A6007E
:1008F8002308B5002708A3003508A7002408B50079
:100908002808A4003508A8002508B5002908A5006E
:100918003508A900B5013308AA00AB012B08AD00C2
:1009280034082A02AC00031CAD032D08803AAE003F
:1009380080302E02031DA22C1A302C02031CBF2C5F
:10094800400125082404230422040319AD2C013096
:10095800AE2C0030B500A201A301A401A501330803
:10096800B400C42C351CBC2C35360138B500BD2C60
:10097800B5366D258431400133083402031CB62C8A
:10098800321BDF2C3408031DCA2C7C2D2608A20735
:100998002708A33D2808A43D2908A53D251C3F2D6F
:1009A800351CDB2CB53635080138B500DC2CB536DE
:1009B8006D2584313F2D2508803AAA002908803A00
:1009C8002A02031DF12C28082402031DF12C2708F4
:1009D8002302031DF12C2608220203181C2DFF30C8
:1009E800AA00AB00AC00AD0022082602AE00230826
:1009F800273BAF002408283BB0002508293BB1005D
:100A08002E08AA072F08AB3D3008AC3D3108AD3D94
:100A18002D08A5002C08A4002B08A3002A08A20072
:100A28008030B206B509B50F242D75258431242DE3
:100A38002608A2022708A33B2808A43B2908A53BAF
:100A48002508240423042204031D3D2D3508031D15
:100A58003D2D7C2DA235A30DA40DA50DB51B22148B
:100A6800351C392D0314B50D3A2DB5353408031D41
:100A7800B403A41F2E2DB301B51F4A2D35087F39A5
:100A880003192218482D4A2DB301B30A3308031954
:100A9800572D75258431251C572DA537A40CA30C7B
:100AA800A20C340FB40A340A031D3408031D632D45
:100AB800A201A301A401A50134080319B201341C41
:100AC800672DA417682DA4133436A500B21BA517EB
:100AD80008002218B517A537A40CA30CA20CB40A59
:100AE80008000130A2070030A33DA43DA53D080041
:100AF800A201A301A401A5010800BC00B701B80127
:100B0800482685313B080319232E25303B06031957
:100B1800A22D692685310319992D3B0875268A006F
:100B2800403F0A00853140019E2D612685313B08F2
:100B38006F268531B70A0319B80A842DB5014826EE
:100B48008531003A0319232E643A0319AF2D0D3A63
:100B58000319AF2D842D3008860087010108840011
:100B6800023085018107003FB900013FBA00BA1F72
:100B7800C42D0330B504B909BA09B90A0319BA0A68
:100B8800BB01BB0A3B0855268531B300013FB400C1
:100B98003A02031DD12D33083902031CD82D053024
:100BA800BB0A3B06031DC62D350803390319F02D72
:100BB800692685310319E82D2D3075268A00403FB6
:100BC8000A0085314001ED2D612685312D306F26D3
:100BD8008531B70A0319B80A3B08B6001F2E0A3038
:100BE800A900AA0136085526A200013FA3003A0829
:100BF800A5003908A4008331812385312308AC007E
:100C08002208AB00282685312908303EBB0069261A
:100C180085310319172E3B0875268A00403F0A00C4
:100C2800863140011C2E612685313B086F268531AF
:100C3800B70A0319B80AB603360FF32D842D3808FE
:100C4800AF003708AE00080029082A040319432E0C
:100C5800AD01AD0AAA1B332EA935AA0D2D2E2A08DF
:100C68002C02031D392E29082B02031C3F2E2908AC
:100C7800AB022A08AC3BAA36A90CAD0B332E2C08C4
:100C8800AA002B08A90008002F08B2002E08B100FE
:100C9800AE0A0319AF0A8400320885000008BB00B9
:100CA8000800B1006630B201B135B20D31078400D9
:100CB8009030323D8500003F08003C0886008701DF
:100CC800010886000130870008003C0A8600870179
:100CD80016000104080081003C0886008701810A8B
:100CE8000800A3003C0A86008701413F08009626B9
:100CF8008631003A031D08008C30860023308700B7
:100D080052085106031D8D2ED201D203D101D10301
:100D180008005208592786319A268231FE22220875
:100D2800D20008004001520F003401340319A50A0B
:100D38003230A200A30108002B08A9002A08A80045
:100D48002627863108278631003A0319AD2E3F271A
:100D580086315035A03E86008701403FB200413FB2
:100D6800B3005035A03E8600403FB400413FB50077
:100D78005008B6004F08AC00AD01AC1BAD033608F7
:100D8800AE00AF012D082F06031DCC2E2C082E0611
:100D98000319FB2E5F278631AC00413FAD003302BB
:100DA800031DD82E2C0832020318DF2E5F27863148
:100DB800B200413FB3005F278631AC00413FAD0030
:100DC80035082D02031DEA2E34082C020318F12ED3
:100DD8005F278631B400413FB5003608A400A5015D
:100DE800A40A65278231FE2286312208BD2E3408E6
:100DF8003207B0003508333DB100B136B00C3108C8
:100E0800AB003008AA0008005008A200A301A21BEA
:100E1800A30301304F07A400A5010318A50ACF1B9F
:100E2800A503400123082506031D1C2F22082406BC
:100E3800031901345008031D003404304F06031908
:100E48000134003408278631003A031D0800500F8A
:100E58002E2FD0014F085927863165278231FE226F
:100E68002208CF004F35A03E860087012808C03FE2
:100E78002908C13F080056278631003A031D08009B
:100E880050084F06031D4D2FD001D003CF01CF03CB
:100E9800080050085927863165278231FE2222082A
:100EA800D0000800500F00340134A400A501A41B91
:100EB800A503A40A08003635A03E86008701403FF6
:100EC80008000319A50A0530A200A3010800B10013
:100ED8003108031DAC1F802F2909B3002A09B4006B
:100EE8002B09B5002C09B600B30A0319B40A031973
:100EF800B50A0319B60A882F2C08B6002B08B500C6
:100F08002A08B4002908B3002C082B042A04290451
:100F1800031D932FA901AA01AB01AC01080096306B
:100F2800B200FE3036050319A62FB20ADB27873137
:100F3800952F0130B20AB3070030B43DB53DB63D38
:100F4800DB278731FF3036050319B42F9D2F023078
:100F58003202031CB62FB203B335B40DB50DB60D6E
:100F6800B51FAB2F3218BF2FFF30B305B4057F3044
:100F7800B505FF30B605B2363208B000AF01AE0194
:100F8800AD012D08B3042E08B4042F08B5043008A9
:100F9800B6043108031DAC1FD22FB6173608AC00B3
:100FA8003508AB003408AA003308A9000800B63693
:100FB800B50CB40CB30C0800083063020318F32F07
:100FC8005308B23E86008701010854019A00410186
:100FD800D30A083053020318D301E30A08004E016C
:060FE800191308000800C7
:101C3C009010410159085A04031908005A088A00E7
:101C4C0059080A008E31080064000130800101310E
:101C5C00FE020030FF3B7F087E04031900342B2E5C
:101C6C00A600A7000130A4020030A53B240F412E92
:101C7C00250A03190800270886000130870022086E
:101C8C008100A70A382E42019D1C4E2E1D121D16D6
:101C9C0041015708BA3E86008701420119088100AC
:101CAC004101D70A083057020318D701D50A08009A
:101CBC0054019D1C632E1D121D1641015208AA3E93
:101CCC00860087015401190881004101D20A0830AD
:101CDC0052020318D201D00A080040015208A40095
:101CEC008C30A501A435A50DA6002330A70024082F
:101CFC00260786002508273D8700403FA200413F6C
:101D0C00A30008000830640203189B2E5808C23E3A
:101D1C0086008701010842019A004101D80A083067
:101D2C0058020318D801E40A08004E0119120800E1
:101D3C002308A02EA200410164080319A12E4E0114
:101D4C00191AAD2E4001220842019A00BC2E19121C
:101D5C007D08C23E86008701400122088100FD0AF1
:101D6C0008307D020318FD014101E4034E011916F0
:101D7C00080099135E304001A2000E30A300E0264B
:101D8C008E314E011913E0304001A2000730A30040
:101D9C00E8268E31083054019F0080302227410103
:101DAC00D401D3010830E300D201D101D0014E019E
:101DBC009917080023084101DC0040012208410169
:101DCC00DB00080023084101DE004001220841012C
:101DDC00DD0008004E01991249304001A2000E307E
:101DEC00A30012278E314E01191288304001A20037
:101DFC000E30A3001A278E31083042019F0090301C
:101E0C002227FD014101D8010830E400D701D60199
:101E1C00D5014E019916080023084101E00040014C
:101E2C0022084101DF00080023084101E2004001C3
:101E3C0022084101E10008009D0024309E00223060
:101E4C009B009C0108004F0B080002304D278F317E
:101E5C0058278F3145278F3171084001A100700838
:101E6C00A0006430F000F1012108F3002008F2001A
:101E7C00DB278F317108F8007008F7005A2F1C0807
:101E8C00F100F0011B08F0070318F10A0800F1003B
:101E9C00F000F00DF00D1D087006033970069D0062
:101EAC001D1408009D14080084278F31003A031D6F
:101EBC0008004001520F632FD2015108F200F301C8
:101ECC00F21BF303F20A0319F30A3230F000F101AA
:101EDC00A2277008D100F9008C30FA01F935FA0DFF
:101EEC00FB002330FC0079087B0786007A087C3DD8
:101EFC0087007708C03F7808C13F08005208F000FF
:101F0C00F101F01BF10301305107F200F30103184A
:101F1C00F30AD11BF30371087306031D972F700886
:101F2C0072060319013440015208031D003431308C
:101F3C005106031901340034F501F31FAC2FF209DB
:101F4C00F309F20A0319F30AF501F50AF11FB32F8D
:101F5C00F009F109F00A0319F10A70087104031968
:101F6C00CE2FF401F40AF11BBE2FF035F10DB82F72
:101F7C0071087302031DC42F70087202031CCA2F50
:101F8C007008F2027108F33BF136F00CF40BBE2F23
:101F9C0075080319D62FF209F309F20A0319F30A8B
:101FAC007308F1007208F0000800F401F5017008E4
:101FBC0071040319FB2FF601F60AF11BE82FF0351B
:101FCC00F10DE22FF435F50D71087302031DF02F9E
:101FDC0070087202031CF72F7008F2027108F33BB1
:101FEC007414F136F00CF60BE82F7508F100740838
:101FFC00F000080023343134203450343134303480
:10200C0030343034203423343234203450343134AE
:10201C00303430343034203423343334203450349E
:10202C0031343034303430342034233434342034AC
:10203C00503431343034303430342034233435346B
:10204C00203450343134303430343034203454343F
:10205C003834303430340D340034233431342034BB
:10206C00503432343034303430342034233432343D
:10207C00203450343234303430343034203423343F
:10208C00333420345034323430343034303420341F
:10209C00233434342034503432343034303430340B
:1020AC00203423343534203450343234303430340A
:1020BC003034203454343834303430340D3400342B
:1020CC00013400340A34003464340034E83403340A
:1020DC0010342734533454344134523454340D3482
:0E20EC000A340034253464340D340A340034D0
:020000040001F9
:0A000E00EC3FFF3F9F3FFF3FFF3F25
:00000001FF
